:020000040000FA
:1000000000440020F95D010001C9011001C901107F
:1000100001C9011001C9011001C9011001C9011074
:1000200001C9011001C9011001C9011001C9011064
:1000300001C9011001C901103FC90110DFF800F02A
:1000400085BF0110DFF800F061C00110DFF800F09B
:1000500079BF0110DFF800F0A9C00110DFF800F04F
:1000600089AF011020B1082330220021FFF7EEBF35
:100070007047F0B51C008DB005460E46174603D1FB
:10008000002302F0D5FB0CE06846FFF7EBFF206889
:1000900005906B46606808903A4600F005F802F05B
:1000A000C7FB28460DB0F0BD207AADF818003146E8
:1000B00028467047FFF7CEBFFFF7C0BFFFF7CEBFA0
:1000C00002F0D6BB02F0DEBB002101604FF0FF3131
:1000D0004160012101727047FFF7B4BFDFF800F003
:1000E000C1BF0110DFF800F0B9BA0110DFF800F06D
:1000F000E5C00110DFF800F01FBE0110DFF800F0CE
:1001000069B20110DFF800F091BE011020B10823A0
:1001100024220021FFF7E2BF7047F0B51C0089B030
:1001200005460E46174603D10023FFF7E7FF0AE016
:100130006846FFF7EBFFA06806906B463A463146EB
:100140002846FFF7DBFF0D480D4A0168116028467D
:1001500009B0F0BDFFF7D6BF02F09CBB80B502F03E
:10016000B0FB00B10120C0B202BD00218160704728
:10017000FFF7BCBFFFF7BEBFFFF7B4BF685F01006A
:100180009426002070B5DFF87C4782B001200090F3
:1001900009232568DFF870076E684FF400720021AC
:1001A000B04773BD70B5DFF85C47DFF85C072568C2
:1001B000EE68002301223421B04700B10120C0B213
:1001C00070BDDFF84817012081F8E6007047DFF8BE
:1001D0003C0780687047DFF83417084490F8EF0058
:1001E000704702460020022904D1012A06D140F2BC
:1001F000EE207047012A08BF4FF47A707047DFF88D
:100200000C1791F8E60020B1D1F81001002818BFB2
:10021000004770472DE9FF41DFF8F08608F1E1055E
:10022000A879002873D1DFF8E816DFF8E8660A68D5
:100230009209012002F00102A871EA71307BDFF817
:10024000D87668717068C8F8100101A8FFF78DFFB3
:10025000002102918DF80410039101AB00220FF2EE
:10026000355108F10C00FFF758FF01AB00220FF2E7
:10027000E15108F13000FFF750FF01AB00220FF20F
:10028000195108F15400FFF748FFB1680120884771
:10029000DFF8880601787868C0F38154707B20B15C
:1002A000032C02D10121297003E0032C18BF022C7A
:1002B00016D1022000F0A6F8DFF864160A68032CB5
:1002C0000CBF4FF47A7042F21070B0FBF2F108F1FB
:1002D0005400FFF74DFF08F15400FFF74BFF10E00B
:1002E000012C0ED1DFF81C46032000901C2325684A
:1002F000DFF814066E684FF040520021B047FFF758
:1003000041FF386840075CBF002000F07BF8002008
:1003100004B0BDE8F08138B5002408B1150002D161
:100320006FF0020407E08160C26003610146DFF8FC
:10033000DC0502F0D2FA204632BD10B50446FFF7C4
:10034000BBFEDFF8C8150A1992F8E9305B1E82F887
:10035000E930DBB233B98A68012303FA04F422EAF4
:1003600004048C605FE0F8B50546FFF7A5FE04467F
:10037000DFF89815481990F8EF20521E80F8EF200A
:10038000D2B27ABB0FF2E450DFF8987500EB850229
:1003900010F825505688280615D539680A6A30465F
:1003A00090473A68916A3046884739680A6B304608
:1003B0009047DFF8741501200860DFF870150868B1
:1003C0008007FCD507E0680611D501EB8601002007
:1003D000D1F80421904705F03F053F2D1CBF28466A
:1003E000FFF7C1FF2046FFF777FE0020F2BD396816
:1003F0008A69304690473A68516B304688470228F0
:10040000F9D1E8E710B50446FFF756FEDFF8FC1413
:100410008A680123A3401A438A60214491F8E920A5
:10042000521C81F8E920FFF757FE002010BD2DE98E
:10043000F0410746FFF740FE0546DFF8D064F019AB
:1004400090F8EF104A1C80F8EF2049BB0FF21C58BF
:1004500018F8270000F03F003F2818BFFFF7E7FF1C
:1004600008EB8700448818F82700DFF8B874010605
:100470000ED53968CA69204690473A68516A2046C5
:1004800088473968CA6A2046904700F01FF807E09D
:1004900040060BD506EB84010120D1F804219047DA
:1004A0002846FFF719FE0020BDE8F08139684A6947
:1004B000204690473A68516B204688470128F9D179
:1004C000EEE7DFF84814C1F810017047DFF8581460
:1004D00001200860DFF8541408688007FCD57047D5
:1004E0002DE9F84F0746DFF82804DFF84854016883
:1004F000002600244A06A0460DD5287B58B9DFF80F
:100500003804DFF8381402680A4042F08172026051
:10051000202000F076F9012F18BF6FF0010957D1A4
:100520002868012852D10221296002F06AFA0120CC
:1005300000F067F95FEA00094BD101F0DFFFDFF857
:100540000014DFF8E07300900C600120B96A0A68BB
:100550009047012803D1002000F0A9F90124DFF819
:10056000E413DFF8CCA3DFF8E0230E60DAF8001024
:10057000907808B14FF00108517809B148F00208AD
:10058000107808B148F00408A87F20B139680A6BD8
:100590004FF480609047687F20B139680A6B4FF450
:1005A00081609047DFF880130120086048F0200048
:1005B00039688A699047DFF8941301200860DFF8F2
:1005C0004C13087AC10709D501261FE06FF0040912
:1005D0007DE00120286002F01FFA78E0396ADFF838
:1005E00070038A6890478346BBF1040FF6D0BBF1D5
:1005F000010F05D13A6ADFF8580353680321984781
:10060000DFF850030168890889000160002002F0CA
:1006100027FADAF800003868816B884776B9BBF1B1
:10062000010F05D13A6ADFF8280353680121984782
:10063000DFF82003016841F0030101600120DFF8C9
:1006400004130860404639684A699047A87F20B182
:100650003968CA6A4FF480609047687F20B1396872
:10066000CA6A4FF481609047AF49B84A01200860D8
:1006700000211160032028603A68516B404688478A
:100680000128F9D1DAF80000042000F0BAF8064693
:10069000AB4901200860DAF800109D49086880061F
:1006A000FCD514B1012000F002F902F029FB08206A
:1006B00000F0A7F8064301202860009801F026FF0B
:1006C00002F0A3FA02F0A8F90EB14FF0FF39484644
:1006D000BDE8F28F38B50446FFF7EEFC054621462B
:1006E0008A4802F00EF92846BDE83240FFF7F4BC14
:1006F0003EB50024012804D020D303281CD017D3F2
:100700001CE06846FFF731FD804D934901948DF858
:10071000004002946B46012205F17800FFF7FDFCD2
:1007200000238E4A2C2105F19C00FFF7A2FC05E076
:1007300002F002FB044601E002F0C2FB20463EBD8F
:10074000000038B5FFF7B8FC7049054691F8E000A5
:10075000012410B1FFF726FD04462846FFF7BCFC34
:10076000204632BD70B5FFF7A7FC044602F037FD06
:100770006649002081F8E000664885680220A847A5
:100780000646102000F03DF8012E04BF0320A847C4
:1007900088E000007047000038B55A4CE16B0A68E9
:1007A00004209047022818BF03280FD1032000908F
:1007B0001C232468544865684FF040520021A84724
:1007C000FFF7E0FCBDE832400220B6E5644854493A
:1007D00000680A684D4CC0F3815003280CBF4FF4E9
:1007E0007A7041F28830B0FBF2F104F15400FFF767
:1007F000BFFC04F15400BDE83240FFF7BBBC002051
:10080000704738B50546414C204602F05CF888B97F
:10081000204602F05EF80446A068284205D022690E
:10082000E36800212846984730B9204602F053F883
:100830000400F1D1002032BD4FF0FF3032BD4949F4
:1008400001280CBF40F2FF700020086000207047B4
:1008500070B5FFF731FC2D4E2E4D044696F8E000A2
:1008600028B102F0BCFC70B1002086F8E000022044
:10087000AD68A84706461020FFF7C3FF012E11D12F
:100880000320A8470EE026490A683220B0FBF2F1A7
:1008900001B9012106F13000FFF76AFC06F13000D2
:1008A000FFF768FC2046BDE87040FFF715BC38B57F
:1008B000012823D12C490A681368984701281DD0C4
:1008C00002F080FC114D012085F8E000287A8106B5
:1008D00016D4134802683221B1FBF2F404B90124A2
:1008E00005F13000FFF748FC214605F13000FFF725
:1008F0003FFC05F13000FFF73DFC01E002F095FC04
:10090000002032BDA401001000A00C40980D002072
:100910001410094010380100B03F0050992A0020FF
:1009200094260020B80100102820086028200840E4
:100930002C200940740E002004000940FFFFFCFC3D
:100940000C40094000022243960E0020800104431F
:100950000040034024220840093000009D2D000083
:10096000B43F005000000460E00100108F00000060
:100970008F0001008F0002008F0003009000000133
:100980008F00010190000002900000038F0001041D
:100990008F0000058F0008048F0000048A00000605
:1009A000510000007F0001003F0004003F000200F2
:1009B0003F0001007F0002007047000030B513487F
:1009C000134C4FF4C151018000214180416081608E
:1009D00001730121417300218173C1730D490A889C
:1009E00002820D4A516B4A692578136805EB45056B
:1009F0005A19B2F8013043824A6842618A688261BA
:100A0000CA68C2610969016230BD00BF5027002079
:100A1000714F0020544F00208C520100DFF800F08D
:100A2000818B0110DFF800F0D949001070B54B4CF4
:100A30004B4B2568186855F8183F00224FF0FF31DE
:100A400098474848484A416B484C4869484D417965
:100A5000117000260EF0D2FA4648FFF7DFFFFFF7CD
:100A6000E1FF4548026800215171A0230168072277
:100A7000CB804A7203210268117200210368597702
:100A80000268D176036883F85C100121026811774F
:100A9000036883F85D100021006880F85E100EE0A6
:100AA0006068F6B24FF4D071714308444279012A6C
:100AB00004D130460CF0F0F90CF008FA761C2978D5
:100AC000F0B28842ECD30EF0DDFA2C482C4A0178C3
:100AD00011700EF0F3FA0EF00FFB2A482A4A8078C4
:100AE0002A4BC1074CBF072105211170000711785F
:100AF0004CBFFF20FB200840107000202449254AED
:100B00000870002111700120234A1070234A1170CF
:100B1000234A10704FF4A470224A1170224A1170B7
:100B2000224A1170224A11801B21224A1180224A36
:100B30002249108040F6480008802149214A088057
:100B4000FB211180198020490880204908800EF07F
:100B5000EFFA1F490020087070BD00BFF04E002062
:100B6000EC4E00208C520100714F0020684E002096
:100B70007B4F0020CC470020104F00206D4F0020FD
:100B80007A4F0020742700209C2A00204C4F002020
:100B9000734F0020744F0020754F0020764F0020C7
:100BA000774F0020784F0020794F00209D2A0020A9
:100BB000524F0020444F0020464F00208A2A002038
:100BC0008C2A0020484F00204A4F00204E4F002022
:100BD0006F4F002011BF011083010001A10CD00351
:100BE000640D0020000152941420023401002004FE
:100BF000523C041200011007882A002080230020A4
:100C00008404C20001C0052001010000B82218526E
:100C10000001100720050020B00C00200111C301C5
:100C20000001126818210422000150026CDC02004D
:100C3000015003200C0020030D1003B30A0100FD36
:100C400004F3010100012002E00C00201712000152
:100C50000002200500205200015200011200010094
:100C60000208000000030000000000000000000077
:100C70000000000000000000000000000000000074
:100C80000000000000000000000000000000000064
:100C90000000000000000000000000000000000054
:100CA0000000000000000000000000000000000044
:10100000B41200001810000015AB0110FDB3011060
:101010006DC00110FDAE011099B501100000000077
:10102000000000002D000000B01200003C10000085
:10103000B1C00110A9BF011067C0011069B801104B
:10104000000000000000000030000000B0120000AE
:1010500060100000BDC00110CDB30110D9BD01105A
:101060006DB301100000000000000000310000001E
:1010700000000000D40B002004000000000000006D
:101080000000000020000000945501003000000026
:1010900028100000F40B00200400000000000000F5
:1010A000000000000C000000085D010018000000B6
:1010B0004C100000FC0B00200400000000000000A9
:1010C0000000000024000000205D01001800000066
:1010D000000000003C0C00200400000000000000A4
:1010E0000000000010000000F05601002C0000007D
:1010F00000100000580C0020040000000000000058
:101100000000000020000000FC5801002400000046
:10111000FFFFFFFF600C0020040000000000000043
:1011200000000000280000002059010024000000F9
:10113000FFFFFFFF880C00200400000000000000FB
:101140000000000014000000385D010018000000DD
:10115000FFFFFFFF900C00200400000000000000D3
:101160000000000058000000C054010034000000DE
:10117000FFFFFFFF980C00200400000000000000AB
:101180000000000010000000505D01001800000089
:10119000FFFFFFFFA00C0020040000000000000083
:1011A000000000001C000000445901002400000061
:1011B000FFFFFFFFA80C002004000000000000005B
:1011C0000000000038000000345801002800000032
:1011D000FFFFFFFF100D00200400000000000000D2
:1011E0000000000054000000945101003C00000089
:1011F000010000006C5F01000100000000000E0013
:1012000000000F003200000001000000DC0B002095
:10121000000200000000000001C9011000000000F1
:10122000000000000800000000002200040C002064
:10123000000000000000000008000000680C002012
:101240000000000000000000080000000000000096
:10125000000000000000000000000000010000008D
:10126000B00C00200600000001000000180D002056
:10127000000000000000000000020000000000006C
:10128000290001002500300031002D00010001007F
:1012900004000000705E010000000000000000007B
:1012A000000001000000030013C40110110B010035
:1012B000B8120000B8120000000000004C0C002022
:1012C000710A010020000000105E01005C5801005E
:1012D00029C10110FF5C0000EF5D0000A1C70110F3
:1012E000A3C70110000000008F120000584D01003C
:1012F000704D0100404D0100020009000100000096
:101300000100000001580100D5570100755B010084
:101310002D55010061550100894D01005144010026
:10132000995D0100E9090100490B01004D0B010025
:1013300038B50546FEF7C0FE2C680CB1216829605F
:10134000FEF7CAFE204632BD70B505460E462C6833
:10135000002030601CB9FEF7AFFE2E600DE0FEF7F6
:10136000ABFE00E0246821680029FBD1B44203D120
:10137000FEF7B2FE002070BD2660FEF7ADFE012034
:1013800070BD10B501460022DFF8500B00EB421093
:10139000C37F1C0603D5B0F91C308B4203D0521C0E
:1013A000082AF1DB002010BD38B504281DD1DFF874
:1013B000CC4A04F1EC052846FEF7D0FEA8B1284639
:1013C000FEF7CAFEDFF8B81A0A68504364280CD248
:1013D0002846FEF7D1FE0520FFF714F80120E0773C
:1013E000042104F14C0001F08DF8002032BD70B5ED
:1013F0000446FEF761FEDFF88C1A0546887D00B3CF
:10140000401E8875C0B2E0B9DFF8706A082100F0AC
:10141000F4F8B4B1B06B7030FEF7AEFEB06BDFF82D
:10142000601AC0680A68241AB4FBF2F1012906F1B7
:10143000EC0498BF01212046FEF79AFE2046FEF7F5
:1014400099FE2846BDE87040FEF746BE10B504463A
:10145000207B00F00F0002280FD100F018FDA168DA
:10146000081ADFF8181A8A6BD168800801F57A71BA
:10147000814238BFB0F1405F00D3002010BD38B5C5
:10148000DFF85C1ADFF85C0A0C68DFF8F0590440FA
:10149000E0430860A00606D54868810603D54FF4EE
:1014A000005100F0E6FD14F4602F09D0286904F41F
:1014B000602404432C6105F19C00BDE834403AE00F
:1014C00031BD70B5FEF7F8FDDFF8B0590446286964
:1014D00010F4602F25D02E69F601360EF00748BFB4
:1014E000002606D4B00748BF012602D4700748BFC3
:1014F0000226701D40B200F051FF2969012206F159
:10150000110082409143296100F0BEFC05EB86008A
:10151000446844B1286800224FF00063711DA04761
:1015200001E000F0B1FC286920B105F19C00BDE8A4
:10153000704000E070BD002100F0E4BF70B500F025
:10154000E7FFDFF83869DFF8E05B8107B16A1DD497
:10155000D1E90423104007D0F1628A691043886101
:101560004FF4804100F049F8B06A002844D1746A11
:10157000002C41D0E068B16B884222D006F14C00CB
:10158000BDE870404FF4805100F0BCBF09B9B16AAA
:10159000EAE70022B262D1E904238C69104040F0EE
:1015A000020020438861686990436861E868984355
:1015B000E86006F13000FFF7C7FE022100F01DF8D9
:1015C000E5E7A068FFF742FFB06408B1B06CD1E076
:1015D000D4E904016A6902436A610020EA680A43A7
:1015E000EA60E861A0682860E8690028FCD006F19C
:1015F0002400FFF79DFEB46270BD06F14C0000F0C0
:1016000081BF0020F3E6F8B5074614463E6E1D463E
:1016100006B1B047A00708D4D7E9160120402940F9
:101620000022914208BF904207D0C7E91A4507F14E
:101630003800BDE8F24001F026B8F1BD704780B532
:1016400000F05EFFDFF834280146906BD26BBDE8F6
:10165000084010470421DFF8D40A00F053BF80B5DA
:1016600000F056FFDFF8C81A084204D0BDE8044075
:101670004FF00051EFE701BD70B504005AD0A168EA
:10168000202000291CBFC2B2002A59D00A8840F687
:1016900003039A421FBF40F604039A424968401E62
:1016A000EFD148E000224FF08043B4F91C10E0680D
:1016B0006568A847FEF700FDDFF8C0570646E88ECC
:1016C000401CC0F30B00E8860020296BC87705F1A9
:1016D0003000FFF72DFE3046FEF7FEFCB5F9360070
:1016E000E26802F19403B3F90010884202BFDFF808
:1016F0009407017D00291DD1987808B9106810B9A8
:101700000020987036E0A96B0B6813F1010F11D01F
:10171000DFF86C572968B0FBF1F1012998BF01216E
:1017200002F17000FEF724FDE068BDE87040703003
:10173000FEF720BD70BDE0681822203000F0F2FFF7
:10174000A2690020A06160680028B3D0E07F002378
:1017500000F00700012842F0020207D00228A1D0C1
:10176000042804BF00224FF080539EE700224FF070
:1017700000539AE7BDE8704039E638B50D46A80732
:10178000DFF8F84619D5206BFFF776FF206B25F0C0
:10179000020510B145F0020109E0680702D4606A51
:1017A000002854D004F1EC00FEF7E6FC042104F11B
:1017B0004C00BDE8344000F0A5BE680747D50120C5
:1017C00084F820000420FEF71DFEDFF86809016898
:1017D0000A6B90472064606A08B1C068A063A06B80
:1017E0004168DFF854090A7802600220FEF70AFE19
:1017F0001120FEF71CFE0120E076A06B017C002981
:1018000019BF607E00280E20FEF711FEA06BDFF8E6
:10181000182940688168002904BFC068002804D0E6
:101820000021D161DFF84C0A106040F2FF70DFF850
:10183000481A086000219161DFF8F40850610FF246
:101840001100E0631920BDE83240FEF737BC31BD1E
:101850002DE9F0430446880085B040F19380DFF81D
:101860001C56A86B4068406800B18047A86BDFF841
:10187000B88842689068002804BFD16800290DD05C
:1018800000F0A7F8906800B18047A86B4068C06876
:1018900000B18047DFF86C0A00F03DFE0020C8F878
:1018A0001C0040F60A09DFF8600ADFF8D875C8F8AE
:1018B0000000012000F069FE0FF28110E8630021B2
:1018C00000207880A7F8009000F00CFA787B00F0F8
:1018D00003FAA26816467180697E09B1607CA0B1E6
:1018E000108840F60201884218BFB0F5C15F05D1EB
:1018F000318A4FF60F400140318204E0318B4FF6C0
:101900000F4001403183002060746946104600F0AA
:1019100029FE684600F034FE7068B0B3018849457E
:1019200018BF0646F8D130E0208C00283FD00021B7
:101930006184616204F12C004278017802F0F002C7
:1019400001F0F00142F001020170427004F1200048
:101950007860787B00F0F000787328E0DFF8801A78
:101960000A68136801209847012808D0707B00F0AE
:10197000F00040F0010070730FF26900E863A068A6
:10198000C8F8000005B0BDE8F083776040F60301B9
:10199000707B00F0F0007073686A8068008888428D
:1019A0001CBF40F604018842BED10020286400F02C
:1019B00010F84FF6FF30A1680A8A02400A82E87FD9
:1019C0000028CBD0FEF7BDFE0028FBD0FEF7CAFEF4
:1019D000D5E7D8F81C000028FBD00021C8F81C105F
:1019E00070470000DFF8FC29114200D17047DFF892
:1019F000F019012010B50A68DFF880441368984791
:101A0000012808D10FF23500DFF81C17E063DFF87A
:101A10007404086010BDDFF8682410683221B1FB3F
:101A2000F0F1012998BF0121EC342046FEF7A0FB1C
:101A30002046BDE81040FEF79DBB00002DE9FE4F9B
:101A400006460C466004DFF8345419D5FEF734FB23
:101A5000EE6AB769B9070ED46EB10021B161FEF725
:101A60003BFB706848B1B6F91C10F06876683A46DE
:101A70000023B04701E0FEF72FFB24F4804425E16A
:101A8000A0070AD5286BFFF7F7FD286B002824F084
:101A9000020401D044F0020418E1A00005F180081E
:101AA00040F60909DFF8DC73DFF888B676D595F8DB
:101AB000200028B10420FEF740FC002085F820001B
:101AC00040F60202B0680188914218BFB1F5C15FCB
:101AD00005D1028A2D2161F30912028204E0028BF2
:101AE0002D2161F309120283286CD8B1DBF8541060
:101AF0000A6804209047A8B1DBF80000016B884712
:101B0000296C814228BF401E401A718A11EB1030A7
:101B1000F06040F2D171A0F5FA70884224BF40F61F
:101B2000C410F060787B10F00F0F04BF708C484534
:101B300008D1D6F818C000224FF000736FF48071FE
:101B40003046E0470022DFF8A8184046FEF7BAFA10
:101B5000A87E50B10221ADF80010684600F0DBFC11
:101B6000BDF80800A8820020A87601202876002170
:101B7000B87D401CB875E976686A18B11920FEF77F
:101B80009FFA01E044F002043046766900224FF0EB
:101B900080630021B04724F0005497E0A87F24F030
:101BA000080A20B1210703D50020A8777BE0200791
:101BB0007BD5E87F20B10021E9770520FEF7BDFB4A
:101BC0000020287601202877002000F0DEFC00228B
:101BD000DFF820184046FEF775FA697E09B1A87E45
:101BE00010B10121697612E0A86C002834D0DBF82E
:101BF0000010086B8047296C6A6C401A02EB1032A7
:101C00006A64A86CC001904226D200216964DFF8A2
:101C1000E80701680A061FD5787BA7F8009000F056
:101C20005BF800210020788000F05CF8FEF744FAB1
:101C3000DFF8F4144A6922F002024A616FF00202EE
:101C40000A610F600B699C07FCD50A614A6942F082
:101C500002024A61FEF740FA0020286400F068FCA6
:101C6000DFF81416002008600220FEF766FB112042
:101C7000FEF779FB307C10B90E20FEF774FB0020D4
:101C8000A883787D18B906F1380000F0FCFCDFF875
:101C90006C07E863F87D30B10021F97505F14C005F
:101CA000042100F02FFC544610E0A0040ED5AE6ACB
:101CB000002E1CBF7068002806D0B6F91C10F06812
:101CC000766800222023B04724F4005414B1214642
:101CD00000F0CFF9BDE8F78F00F0F00040F0010010
:101CE000787370477960387B00F0F0003873704784
:101CF00030B585B0FEF78EFADFF80407DFF8044749
:101D000001685E4D41F002010160684600F0CDFBC4
:101D1000A078DFF8F41602906A4605F14C0000F056
:101D2000CCFB6846FEF7D0F92178DFF8C826019190
:101D300000208DF808006B46192105F18000FEF7A0
:101D400098F9684600F0B1FBE078DFF8C016029021
:101D50006A4605F19C0000F0B0FB6846FEF7B4F956
:101D600001208DF808006B466078DFF8A42601900A
:101D70001A2105F1D000FEF77CF900230022DFF8DC
:101D8000941605F1EC00FEF7C8F9DFF87006DFF8ED
:101D90008826E8630023042105F58870FEF7BBFA66
:101DA0004FF6FF70A88205B00120A8760020E875E4
:101DB0006876E876E861286485F8200030BDF0B5E3
:101DC00000298BB0064615461C4653D0DFF84C065A
:101DD00000680A78D040C0074CD5002D716049D00A
:101DE0000021284600F0D2FBB560FEF765F9254FCB
:101DF0000546787D00283BD1FFF77AFF787D401CAF
:101E0000787500F0A0FA34B903A80FF24C611C22D7
:101E100000F088FC03AC2068DFF8041630600A4646
:101E20006068F060207C307401207074608A708279
:101E3000E06800B10146B161A06800B1024672617C
:101E4000782106F1200000F0CFFC002106F13800D7
:101E500000F0FBFB6846FEF788F902966B4600220D
:101E6000DFF8C01506F17000FEF757F9304602E0C2
:101E700000F069FA00200BB0F0BD0000A4230020A0
:101E800094260020C82400202046FEF725B9D0B5AE
:101E9000FEF712F9DFF89025117E31B1DFF88C25BD
:101EA0001468FEF719F92046D0BDFEF715F9A148D0
:101EB000DFF87C4501680A6B904710F50032DFF8C7
:101EC000740541F100030169A4FB0267002004FBD3
:101ED0000377321847EB01031846D0BD00150020E8
:101EE0000810044020000E002DE9F84F04460E466D
:101EF00092469B46DFF83055FEF7DEF8B5F9341010
:101F00008046B5F93600091AC1F30B0108296FF0B4
:101F1000010949DAA88EDFF82015401CC0F30B0038
:101F2000A886B5F93400ADF800000020420101F1A7
:101F30001F039B5C1F0640F18C80401CC0B2082828
:101F4000F4DB002704F17000FEF716F9BE6087F895
:101F50001EA0C7F804B02021BDF80000B883FC60C3
:101F6000DDE90AABDFF8D4040AEA00000BEA01015C
:101F7000C7E9040194340020F87740F6FF76686AD8
:101F80000028394605F1240006D0FFF7DDF930B10D
:101F900000F061F840464FE0FFF7D6F940B9A88E4F
:101FA0003618C6F30B06AE8600F01EFA48464EE021
:101FB00000F051F8697FDFF87C4400291CBF287EBF
:101FC000002807D0002001216877A876A977A07D96
:101FD000401CA07500F008FAA96A002935D1287EB6
:101FE00018B11920FEF76CF82FE0E87E68BBFEF709
:101FF00063F80646287F10B10121E1751BE0B8683F
:10200000FFF724FAA864D0B1A86BDFF83414C068D5
:102010000968AA6C121AB2FBF1F2012A83BFAA6CFA
:10202000101AB0FBF1F10121EC352846FEF7A0F8BB
:102030002846FEF79FF83046FEF74EF805E030469A
:10204000FEF74AF8042100F014F8BDF90000BDE8DD
:10205000F28F8F1876E7BDF800002080F87F40F0FF
:102060008000F877A078012802D10021A170A9761C
:10207000704705F14C0000F045BA2DE9F0410546E6
:102080000C4616461F4600F039FA80462046FFF7F8
:1020900078F9040003D1404600F038FA0AE0E07F06
:1020A00010F0070F09D0404600F030FAE07F10F042
:1020B000070FFBD10220002112E06168DFF88403E2
:1020C000814202D0616829666060C5E916674046B2
:1020D00000F01CFA00F006F800202866D5E91A0185
:1020E000BDE8F0814FF0FF3105F1380000F0C2BAD1
:1020F000DCB5DDE906670446CDE90067180008BFD6
:10210000DFF840332046FFF7EFFE002803D500201C
:102110004FF00041DCBD0146204602B0BDE8D04092
:1021200002224FF0E043A8E700100440F023002013
:10213000020000408C010010D021084001E042F074
:1021400002022DE9F843DFF8E052686A00900F467A
:1021500003261446FDF7B0FF17F1010F04F0010844
:10216000814609D1A86A002819BFA96AB1F91C7073
:10217000EF8E7F1C0020E87538B2FFF702F90100EE
:1021800069D0A86A814204F0020426D11CB1686AB1
:10219000009000226A620122C87F02FA08F210430E
:1021A000C87700F0ABF90646B8F1000F14BFDFF8AE
:1021B0009802DFF8980200F0AEF900F06BF824B94D
:1021C00006E000F05BF800F060F800980028F8D115
:1021D000304600F09BF983263FE00098884205F1E5
:1021E000EC0316D11846FDF7C7FF002C12BF0020E4
:1021F000686A0068686200F04DF8009800F03EF8E8
:1022000000F043F8009820B3002CF6D121E01268CA
:102210000092009820B3024610688842F7D1184611
:10222000FDF7AAFF009800681CB1009A0021116018
:1022300004E00168009A116000220260009003E04F
:1022400000F01CF800F021F800980028F8D100F008
:1022500021F8832606E000F01DF83046BDE8F28341
:1022600000F018F8E87E0028F7D10221FFF701FFFF
:10227000F3E700005100070600000460C17F41F051
:102280000401C1776846FFF753B8014605F13000F5
:10229000FFF75AB84846FDF71FBF0FF2BC111C22CA
:1022A00000F040BA38B50446FDF706FFDFF87811B4
:1022B0000546087E68B1204600F02DF9044600F07E
:1022C00042F804F0FF04012C01D1812032BD02202C
:1022D00032BD00F038F8012032BD0A46DFF848115F
:1022E0008B6B984201D00320704707E00A46DFF865
:1022F00038118B6B984201D00320704700211046A3
:10230000D0E700000100070601010E0470B5DFF8F8
:1023100018118A6B90426FF07F0412D1087E80B151
:10232000FDF7CAFE0546DFF8280100F0F4F806467E
:1023300000F009F806F0FF00012802D1360230163D
:1023400070BD204670BD2846FDF7C6BE70B50E466E
:102350001546FDF7B1FE8324334A1EB1022E0ED07E
:1023600006D30FE0916A41B1926A918B29800AE00D
:10237000917E11B9928A2A8005E0802403E0117EC3
:10238000297000E00324FDF7A7FE204670BD80B54C
:102390000846FEF7F6FF00B1806802BD38B5044676
:1023A000FDF78AFE204AD17D4B0702D5937D9C42E2
:1023B00012D00123958A03FA04F10D432549958231
:1023C0000C340A6803FA04F422EA04040C60096875
:1023D00011B9184B00221A75BDE83240FDF77CBEDA
:1023E000E0010010040000204046FDF775BE00002B
:1023F0003D1500005F160000000004407B17000040
:1024000000200940203801003F160000C3140000DE
:102410007F14000055160000A9130000D4210840C5
:102420003D16000003160000A423002004300440E1
:1024300000093D00C824002000150020F1EFFF9F97
:102440009426002007160000010002040100010488
:10245000010003040C100440FFFFFFFFC40900004B
:10246000000000000000000001001A010000000050
:1024700000000000DFF800F011BF0110DFF800F0ED
:1024800011B00110DFF800F015C00110DFF800F006
:1024900015C10110DFF800F005B3011020B10823C9
:1024A00028220021FFF7EEBF704700210160416044
:1024B000C1604FF0FF318160704770B514008AB081
:1024C00005460E4603D1002200F0FAFE0CE06846F5
:1024D000FFF7E4FF206804906A4660680590314683
:1024E00000F004F800F0ECFE0AB070BDE068079060
:1024F000A068069028467047FFF7C8BFFFF7BABF2D
:1025000000F0EABE00F0EEBEFFF7B8BFFFF7C2BFB3
:102510003849086867E0384A11680029FCD100236F
:10252000D3611060D0690028FCD0D1615068704739
:102530003248016821F0020141F400710160032179
:102540002F48816041F2300141610121C160502179
:1025500041610121C1604FF4CA6141610121C16043
:1025600001607047274802680A6082684A60C26852
:102570008A60406B20F0784040F08050C86070471F
:1025800001461022204800F0BDB87047FEB5018812
:10259000B1F5C15F18D142691C4F009200238269D6
:1025A0000192C06902901A480268C2F303625DF8A2
:1025B000230098B1002550F82560BE4206D06D1C5E
:1025C000EDB2042DF7DD09E00120FEBD042D05DC90
:1025D00026F4702444EA024440F825405B1C032B97
:1025E000E5DB0020FEBDC2430A600A680242FAD160
:1025F0007047000010100440001004400000046008
:10260000004104404C130050180000210200F8441F
:1026100054130050DFF800F009C00110DFF800F09B
:10262000059B0110DFF800F0E1A30110DFF800F0D6
:102630005DB40110DFF800F00DC1011020B10823D6
:1026400024220021FFF7E6BF704730B589B0044669
:102650000D4600F00BF801218DF818106A46294646
:102660002046FFF7E3FF204609B030BD6846E5E7A6
:10267000FFF7E0BF80B5FFF7D1FF10B96FF00100A1
:1026800002BD002002BDFFF7CDBFF0B402461068C6
:1026900095681318506803EB5004C00721D54D44CA
:1026A0001FE0F0BC02F10C00704713F8017B05F845
:1026B000017B491EF9D1A0B1B60813F8011B06F041
:1026C0000306032E08BF13F8016B01EB06214942F4
:1026D000801C294405D011F8016B05F8016B401EE0
:1026E000F9D1A342DDD013F8016B16F0030104BF4A
:1026F00013F8011BC91C30090F28DAD113F8010B9C
:102700000F30D6E762B38B0708D0521E11F8013B99
:1027100000F8013B00F024808B07F6D1830740F0DE
:10272000208000BF103A07D330B4B1E83810103A17
:10273000A0E83810F9D230BC530724BFB1E8081024
:10274000A0E8081044BF51F8043B40F8043BD2070E
:1027500024BF31F8022B20F8022B44BF0B78037002
:102760007047121F17D35B0009D151F8043B20F8C2
:10277000023B1B0C121F20F8023BF6D20BE051F873
:10278000043B00F8013B1B0A20F8023B1B0C121F04
:1027900000F8013BF3D238BF121D521E24BF11F8BE
:1027A000013B00F8013BF8D87047024681B0107831
:1027B000022903D1517800EB012013E0032906D14F
:1027C0005178927800EB012000EB02400AE00429E6
:1027D00008D15178937800EB0120D17800EB0340C9
:1027E00000EB016001B07047002200F08FBD10B512
:1027F00001688A089300CC0801F0030003F0040389
:10280000E20018430B0902F008021C0110434A09B8
:1028100004F010045301204303F0200318438909F6
:1028200040EA8110C0B210BDDFF800F0BDAA01106F
:10283000F8B504460B480C4F0668F8690D4650F889
:102840002500B04209D1094800902046FFF7ECFF6F
:10285000F86950F82500B04201D10020F2BD2046B1
:10286000F2BD00BF1812000044010020B40B00208C
:10287000102803D302491038C1F8000F704700BF79
:1028800000E000E08160426070470000DFF800F087
:102890009DB2011070B5044600F052FD0646A08AB4
:1028A0000025012808D1FFF7F1FF0546E068451B28
:1028B000A068A84238BF0025304600F042FD2846F7
:1028C00070BD808A7047006808B9012070470020F9
:1028D0007047006870470068704738B504460D4679
:1028E000FDF7EAFB002129606168696061680029E1
:1028F00014BF0D6025606560FFE7BDE83240FDF75D
:10290000EBBB0A684B68002A0CBF436053604A68FF
:1029100009680AB9016070471160704701700A0ABE
:1029200042700A0C090E8270C170001D70470000D1
:10293000DFF800F031BF0110DFF800F0F5B701104B
:1029400030BF7047FCE738B500F0D6F900F087F9E2
:10295000FDF73DFC044604F00C000C284BD060074A
:1029600021D400F021FD054601210120FDF739FCAD
:102970002F49096801FB05F2904214D2F020B0FB08
:10298000F1F02C4C291A04F10C00FDF7AFFB04F117
:102990000C00FDF7AFFB0120FDF7A2FD04F10C00D8
:1029A000FDF7A0FB29E0200725D4234D2348296A01
:1029B0008A6890470428F8D0E206214900D420B95B
:1029C000086840F00100086003E00A6852085200FD
:1029D0000A601C481C4C016841F003010160202082
:1029E0002A689169884720682868816B8847012197
:1029F0002160206801E0FFF7A5FFBDE8314000F04D
:102A00007FB910B5114CFFF793FF206010480068A4
:102A100008B18047606010BD10B50E480B4C0168CE
:102A200009B1606888472068BDE81040FFF784BF9F
:102A3000685F0100980D0020B801001000400340BD
:102A40008C210840242208402C200940F025002039
:102A5000D40B0000485F01001628A8BF203870473B
:102A60002DE9F84F80469448DFF850920168944E63
:102A70008A0705D50820B0719248C9F80000C2E065
:102A8000914801680A6890478246904805682F1768
:102A900000247F1CA80208D4CAF13E00C0100828F8
:102AA000C8BF08208742B8BF074689480168C1F3FC
:102AB0000460FFF7D1FF834686480168C1F30440F4
:102AC000FFF7CAFF5F44152F0146C8BF152704DC76
:102AD0006FF009008742B8BF074607F01F007E4A23
:102AE00040F4F85010807D4A106810F0030F18BFB2
:102AF0000124400748BF44F0020496F90700B8F1EA
:102B0000000F18BF44F00404AAEB0000042802DC04
:102B1000B27994425DD0AAF10F084FF0000BB8F1E2
:102B2000000FDC4604F004006D4B24D408EB0818B9
:102B30004FEA282CBCF1070F88BF4FF0070CE64680
:102B4000BEF1070F28BF4FF0060E1A1D52F82E20B7
:102B500053F82EE0A2EB0E0E0EF0FF0B10B1CEF3E9
:102B600007229344A20744BFCEF307429344E207EF
:102B700048BF0BEB1E6B53F82C2002F0FF0310B183
:102B8000C2F30720C318A00744BFC2F30740C3180D
:102B9000E007A8EB0C2048BF03EB126300FB0BF02F
:102BA000CF1B8030002F03EB1023D8BF0127342028
:102BB00005F0FF0547437D43B5FBF3F04FF6FF718A
:102BC000884288BF08460AF3070AB08086F807A043
:102BD000B47144480168B088316000211F2804D2D4
:102BE0001F20B08004E04008491CB0F5007FFAD2F5
:102BF0000F38000941EAC0013B480143C9F8001001
:102C00000020C9F80400BDE8F18F10B5374804680A
:102C1000A4B21CB32C4801680A689047284991F96E
:102C20000720904205DA6FF07F029042B8BF10464D
:102C3000C8718888844210D32A4A13680A689A1A8D
:102C4000921C1F2A88BF1F22241A5208D44024181D
:102C5000B4F5803F28BF4FF6FF748C8010BD244828
:102C6000006800B9704730B522498A6802F04063B5
:102C7000B3F1406F1FD0104B1C68A5071BD44C68E4
:102C8000A50718D41C680968C1F303511C31090158
:102C900014F0050F04D088420DD224F0050409E099
:102CA000814208D2100158BF44F00104500158BFBE
:102CB00044F004041C6030BD00000940301009409D
:102CC000AC260020FDFDA400EC010010B43F005034
:102CD000B81200503C1100506E6208402422084097
:102CE0009C1300500820094000E7A48034100940DC
:102CF00028500940AC3F0050EFF3108072B6704787
:102D0000EFF3108062B670470138FDD1704770470D
:102D100010B50C18FFF7F0FF411E8941C90FDFF80D
:102D2000602410680028FCD024680123136009B1D6
:102D3000FFF7E6FF204610BD38B5DFF84854287885
:102D40000024002802BFDFF84014887B00280CD044
:102D5000FDF7B2F90146A878002806BF0122AA7043
:102D600001240846FDF7B8F90CB1002032BD02205D
:102D7000FDF748FB0E20FDF75AFBDFF8101408683A
:102D800008B1012032BDDFF808044022C2600260B1
:102D90000120C8610020687032BD00002DE9F041BB
:102DA000DFF8EC1382B000200860DFF8E81301F1CF
:102DB000D804A07A002837D00128DFF8DC53DFF8E8
:102DC000DC2332D1DFF8D81316684BF2F5204643E6
:102DD0000868360AC0F3814001280BD1A86C01684D
:102DE000884700F03AFA00F053FA3509C01045431D
:102DF00006EBE536607B10B10021617306E0DFF879
:102E0000A403006820F07F4036187608DFF89803A6
:102E10000660360C466001218160DFF86C13887B08
:102E2000002849D00521217348E0022809D11568FE
:102E3000284600F00CF9A5F2FF55032D3CD30820DD
:102E40003BE003283AD1106801F1B806A0F5C06054
:102E50003168F061002948BF4942002848BF40421C
:102E60008142A8BF002026DA7068D04F80B200905F
:102E70000823D5F800C0DCF804804FF47F423021ED
:102E80003846C047B06880B200901223D5F800C021
:102E9000DCF804804FF4F80204213846C047B069DA
:102EA00080B200900A232D686E684FF440622021A2
:102EB0003846B047012020700B202073BDE8F34155
:102EC0002DE9F843DFF8CC82B94EDFF8E092B94C37
:102ED000B94FAF4808F1E105E9784A1E0B2A00F224
:102EE0009280DFE802F00630415F74415F74415F19
:102EF0007B8031680A68202090470F20E06007231C
:102F000041F61D5020614FF4C07202200090002154
:102F1000D6F804C0DCF804404846A0477668484626
:102F2000D6F80C9007234FF4C0720021C847012047
:102F300038600220E87008F17800BDE8F243FDF740
:102F400019B9BDE8F1830120E061287800281DBF90
:102F50000021396103200620E87003202060002052
:102F6000786078688107E6D470684668E878032856
:102F700008D1022100910523602200214846B04774
:102F800004200BE000200090052360220021484629
:102F9000B047E87806280CBF07200A20E870012017
:102FA0007860C8E7042903D12021A161012105E04F
:102FB00001220A29A2610CBF0321022169700021AC
:102FC00021600821C160016001202060B9E7052966
:102FD0000CBF06200920E8700020E1E700203860DF
:102FE00078600C20A6E70021016001206749086095
:102FF0000E20FDF7B8F90220FDF79FF90120E870D7
:103000000020A8709DE7FEE762496B4891F8E42034
:10301000921E0A2A1AD8DFE802F0060A0E190A0ED2
:10302000190A0E19120002689107FCD548E7416899
:103030008A07FCD4FAE741688A07FCD5F6E70268FC
:103040009107FCD441688A07FCD4EFE7FEE7F8B5A6
:103050000446564D30212846FFF75AFE4D4F07F1E2
:10306000B806C0F30720706004212846FFF750FE21
:10307000C0F38440B06020212846FFF749FEC0F32A
:103080008120B4F5C064B061346003D1002087F8BA
:10309000D800F1BD316997F8D80028B97068B168D7
:1030A000F060F461B0697061F06900284CBF6FF0A6
:1030B0000102022200EB40001018421000EB927057
:1030C00001EBA0017268F260002912DC706903282C
:1030D00005D111F1150211001EDA00211CE011F1D9
:1030E0000B000100B8BF0021521E48BF0022F26051
:1030F00007E01E2912DD706928B915391E29C8BFDD
:103100001E21032009E00B391E29C8BF1E21521CB5
:103110003F2AC8BF3F22F26000207061316108235E
:103120001D4CF06880B200904FF47F422768D7F8BA
:1031300004C030212846E047012000901123276871
:10314000D7F804C04FF4003204212846E047306924
:1031500080B2009012232768D7F804C04FF4F80219
:1031600004212846E047706980B200902846246810
:1031700065680A234FF440622021A847F1BD000092
:1031800000800C40790E00201038010004800C40B3
:103190002C500C40980D0020A401001008400C4059
:1031A000B43F0050102009403C600C4000A00C408F
:1031B000A001001000400C4034600C40374800680B
:1031C00000F00AB910B5374C626D53680121032035
:1031D00098472068C16A88473349886010BD70B538
:1031E000304C616D0A680120904701281BD0A56909
:1031F0002B48EE68002301223421B047A0B1FFF72D
:10320000DDFF2068C16A8847274B9A6827491C68F8
:10321000D860A4EB9404801A4843000C1860A042C4
:1032200038BF20461860012070BD38B51D4C626D56
:103230005368002103209847616D0A680120904778
:1032400008B1FFF7BBFF2068174DC16A8847686067
:10325000206E01688847286131BD10B501461448C9
:10326000144B02681B68100400161B394843C01039
:1032700000EB2240120601FB01F412161B0662430A
:1032800061431B1600EBA220594300EBA14010BD87
:1032900000FB00F1C0EBA15000B2704780000010AD
:1032A00000A00C408C0100109826002040420F0026
:1032B00090130050A4100050DFF800F079AD011019
:1032C00010B50446034BFFF7F7FFA06800B1204696
:1032D00010BD00BFB40B002001488068704700BFDC
:1032E000C801002038B504460D4600F034F8616A84
:1032F0000D43656200F030F82046BDE83240FFF72C
:10330000BDB8C92A62F30F2262F31F4200B500BFA5
:10331000130096469446103928BFA0E80C50FAD8FE
:103320005FEA417C28BF0CC048BF40F8042BC907A6
:1033300028BF20F8022B48BF00F8012B00BD0A056A
:1033400000E005E0EFF31180202181F31188704740
:1033500080F311887047F5E7FAE70000F2E7F7E736
:103360000D49C20744BF01220A60820744BF4FF4DF
:1033700080720A60400744BF4FF480300860704795
:10338000064AC30748BF1160830748BF5160400722
:1033900048BF916070470000042009401820094090
:1033A000DFF800F0E1BE011070B5FFF7C9FF094D6D
:1033B0000446A8680021FFF7F3FF06466869861BEC
:1033C000A869B04238BF00262046FFF7BAFF304652
:1033D00070BD00BF7801002070B50446FFF78CFC7B
:1033E000451EAD41ED0F064E30680028FCD0A047C9
:1033F000012131601DB1BDE87040FFF781BC70BD97
:1034000000800C40DFF800F0E5710110DFF800F0FB
:103410001D6E0110DFF800F04D71011080B54FF402
:10342000FC720FF278011A48FFF77CF90121194864
:103430004174002202210270C17601BD2DE9F041E4
:103440000FF2502214493820136854689568D668E2
:103450001769D2F814C0D2F818E0D2F81C800B60BB
:103460004C608D60CE600F61C1F814C0C1F818E0E7
:10347000C1F81C8020322031401EE5D1506893688D
:10348000D46812680A6048608B60CC60BDE8F08147
:10349000480400215903002100C0002141050021FA
:1034A0007D0500212D06002170B51D46004C2047EA
:1034B00087B2000010B5014800470000D5090000A0
:1034C00070B5614C6148254650358047022809D1C6
:1034D0004034E1885E4A914204D1E97C890601D4F6
:1034E000911DE18070BD70B557495A4A0846503069
:1034F0000378002B10D08379012B0DD1037C5B095D
:10350000DB0709D0097D544DC1746C7F2020204316
:10351000687790476C7770BDFF21C174904770BD8C
:1035200010B54E48484C804702280ED12146403104
:10353000CA88474B9A4208D1CA7C5209D20704D0A4
:10354000227D920601D49A1DCA8010BD70B53E48F6
:1035500043494030C07C4009C00707D03E4D414838
:103560002C8B2043288388472C8370BD884770BDEF
:1035700010B53B48344CAC388047214653310A786B
:103580009309DB0705D04034A2730A7803231A435A
:103590000A7010BD2C4940310871182812D004DC83
:1035A0000A280BD00B2804D10AE025280CD02A28A1
:1035B0000CD02D4980004018C06870472B487047D8
:1035C0002B4870472B4870472B4870472B48704753
:1035D00070B504461C484E252D5CAE09F60716D082
:1035E000067D3007000F052803D00120054202D0D8
:1035F0000DE00220FAE7E80905D0700603D5486817
:10360000800F012803D05B085B0052085200062B94
:1036100003D01020022B11D011E0FB200240022326
:103620002046FFF741FF002807DAC100611A203960
:10363000497E1422114200D1002070BD0243034391
:103640002046FFF731FF70BD4401002137CB000059
:1036500004140000EBC80000A8000021F5B400002D
:1036600053AD00002020000080DF00001D05002178
:10367000F9040021CD040021930400216D040021F0
:1036800010B5034CFFF716FF20680028FAD110BDD3
:103690000011044068610000F825F965F9754500DE
:1036A000450045002600260057A3520052004C005A
:1036B000401F401F401F3F000000000030400040FE
:1036C0000140034007400F404F40CF40CF41CF4320
:1036D000CF47CF4FCF3FCF2FCF1FCF0F00000000DE
:1036E0000000000000000F00080000003F00000084
:1036F00040003F000000040068000E00DC000600EF
:1037000043001A0005000000000002000000000055
:10371000000000000400C00000000400C000000021
:103720000700000000000000000000000000000092
:1037300000000000304000400140034007400F40BF
:103740004F40CF40CF7FCF6FCF5FCF4FCF3FCF2FF7
:10375000CF1FCF0F000000000000000050C00091FC
:10376000007070C00091007082312100319110B161
:103770000070018101B100A18231329110B101913B
:103780001110418141227740F106007051C0019132
:1037900030181039833108D01831416F3100319120
:1037A00010B18314141683680070251050C0009166
:1037B000F4C340C12014036F311041045082F02241
:1037C0009840512622C082312100319110B16339D5
:1037D0003110410482C082312100319110B163392E
:1037E0003110A2C082312100319110B15010153139
:1037F000051405920070676452C0311031066131C2
:10380000C1026A6412C13110213971065131E102DD
:103810006A64007051C0019101CCE2C06A646764BF
:1038200011C1C2C06A6450B054B0007140804022DF
:10383000D6440022C94060B08180111EC944007086
:1038400054A064B0F0800022C9404012B09032B061
:1038500070C1DF6811C122C16A6470C1E46851C0DF
:103860000191E2C0823160820200329110B130C217
:10387000EE68538253395339B16460C3F4688012DF
:10388000B09032B00070676401C122C16A6401C1A6
:10389000C2C06A645382B164C012B09032B000708A
:1038A000676472C281C06A6422C111C16A6402C0C5
:1038B00011C16A6462C031C36A6462C311C16A64BF
:1038C00002C311C16A6453825339B164E2C36F64A5
:1038D00011221C4142C281C86A6452C211C16A6489
:1038E00072C2E1CE6A6402C281C86A6402C201C8BF
:1038F0006A64B0C030690070676442C201C86A641B
:1039000052C211C06A6472C2E1C06A6402C001C1DD
:103910006A6462C001C36A6422C101C16A6462C38D
:1039200001C16A6402C301C16A645382B164007058
:103930008180111E5C4150B054B000714080402223
:103940005D4154A064B0F180012251450070002215
:10395000514160B04E610000000000000000000016
:1039600000000000067305720B720E7250B00071F9
:10397000818060B050A09280F0EFF19202936A676C
:1039800041228C458080F1C11004301601110114D0
:10399000016CB561B661B761B861B961BA61BB610B
:1039A000BD61BF61C161C36126632D63F0C00204C4
:1039B0003231412A1214321601112114016CDA61DC
:1039C000C561E061C761CB61B561B561B561F461A5
:1039D000C561FA61C761CB61B561B561B561F4617B
:1039E000C561FA61C761CB61B561B561B561E76178
:1039F000C561ED61C761CB61B561B561B561CF618D
:103A0000CF61CF61CF61CF61CF61C064CF61F96415
:103A1000CF610665CF613265CF617467CF61116692
:103A2000CF61C0644E65F964CF6106651166326589
:103A3000CF618280E0DFF2926A67B0B0D661B1B048
:103A40000673057230B06C61D0CF6A6784C203C060
:103A5000C0C37C64207851788278E3781579B67891
:103A60000062C0CF6A6784C203C0C0C37C64307880
:103A700061789278F3781579C6780062B0CF6A677A
:103A800084C203C0C0C37C6440787178A278037993
:103A90001579D6781092219232924392549265927F
:103AA00056911FC0FF914039F006011010311014DB
:103AB00000927067CF61E3B054A0F08050221A46A4
:103AC00040800022BE461262E3A000C86091598186
:103AD00050B0918041228E46A0CF6A671282823117
:103AE000823942398B641282F2062F101F312F1453
:103AF0001682D622334640C1346200C520140D6FB1
:103B00006D39DE10F4C34E0482C082312E006D394F
:103B1000A2C082312D001A828A39FA0620828031B1
:103B200080390BC00B18BC10AC18038239149B14DD
:103B30001082F006011010311014518110140C1471
:103B4000C622C94631D0C1266462021011C00130BC
:103B500010C00118021882312100C126919103B0D2
:103B600013B063B053B041800122BE46B481C4910A
:103B7000D581B51C774E95186591F0801022694269
:103B80008C623D9110B13E9110B1E08000228146DF
:103B9000E6228142E0B0951865910F925981F9149F
:103BA000F0805022114210228C464D6390CF6A67FC
:103BB00063B052A03082F2C02004021011C0013064
:103BC00010C00118021882312100C12691919191F3
:103BD00013B003B063B053B064B054B0007141800F
:103BE0000122BE4663B064B0F08050221142B18120
:103BF000C191D1819118619131B0A4622967E0A08F
:103C000059810582591480C0007163B0BA6A696233
:103C1000E3A0018262818231823D80EFF1920293C2
:103C20006A6703A00070378247398739308280394C
:103C3000F006021011C0013010C0011802188231C4
:103C40002100C126819102B012B030824039F006C5
:103C5000021011C0013010C0011802188231210079
:103C6000C126919103B013B063B053B0007153A05B
:103C700062B052B041800122BE46A481C491D58178
:103C8000B51CFE4E95186591F0801022F0428C62B2
:103C9000B481C491D4814518751C084FF08010225E
:103CA000F0428C623D9110B13E9110B1E080002253
:103CB0001247E6221243E0B065910F925981F91440
:103CC000F0805022114210228C4630632967E0A018
:103CD000598105825914F0C0007162B0226BF06204
:103CE000A2808B64CF6112824239F2068B6050B0A1
:103CF0000071CF6170CF6A67408241800122BE4669
:103D0000A481C491D58195186591F18011228C46CA
:103D1000336B41800122BE46A481C491D581C51C6C
:103D20001C4B95186591F08010223F438C6260CF48
:103D30006A67408241800122BE46B481C491D58128
:103D400095186591F18011228C46506B41800122BB
:103D5000BE46B481C491D581C51CB44A95186591FD
:103D6000F08010225C438C62E092D08200226B478C
:103D7000C0B20070A080F022874330B002C162312F
:103D800001C0A080001E8043F022814380F8603192
:103D9000603981632010101A136F236E11161216EA
:103DA000826B00702DE9F84FDFF81885DFF81815E1
:103DB00088F80000002008600921DFF81005017074
:103DC0000D2141804FF408718180DFF80405DFF890
:103DD000041501608A7EDFF800050270FF2ACB7EA1
:103DE000437008BFFF2B0D7F85704E7FC6708F7F9D
:103DF0000771C97F417115D1FF2D08BFFF2E11D169
:103E0000FF2F08BFFF290DD1DFF8D0140A78027008
:103E10004A7842708A788270CA78C2700A790271D0
:103E200049794171DFF8B81402780A70FF254278A9
:103E30004A7082788A70C278CA7002790A714079B1
:103E4000DFF8A02448710021DFF89C04057045705C
:103E50008570C570057145711180DFF89004DFF839
:103E60009014466BDFF88C247078087031781170EC
:103E7000B078DFF88414087071690879DFF87C1471
:103E8000421E0A70F078DFF878140870B069DFF825
:103E90007414086008B900F065FAF069DFF8684446
:103EA000206008B900F05EFA2068DFF860740168ED
:103EB0008847216851F8042F38469047DFF85004AE
:103EC000DFF850143862DFF850047862306A086016
:103ED00008B900F047FA706ADFF84014086008B9C2
:103EE00000F040FADFF838B4DFF838649BF80400DB
:103EF00000F04EFA306008B900F045B99BF80500B3
:103F0000DFF8247400F044FA386008B9306837E10B
:103F10009BF80600DFF8144400F03AFA206020B95C
:103F2000306800F03DFA38682AE19BF80700DFF8B6
:103F3000009400F02DFAC9F8000038B9306800F09C
:103F40002FFA386800F02CFA206819E1DFF8A41382
:103F50000A789BF80000DFF8DCA3921C504380B283
:103F600000F016FACAF8080058B9306800F018FADC
:103F7000386800F015FA206800F012FAD9F800004D
:103F8000FEE0DC480078002800F00281BBF8021057
:103F9000DFF8A4B3484380B200F0FAF9CBF804008C
:103FA00078B9306800F0FCF9386800F0F9F9206859
:103FB00000F0F6F9D9F8000000F0F2F9DAF808009C
:103FC000DEE0CC48007800F0E3F9DC49086080B915
:103FD000306800F0E5F9386800F0E2F9D9F800003F
:103FE00000F0DEF9DAF8080000F0DAF9DBF8040096
:103FF000C6E0C04800781C21484300F0C9F9D04A07
:104000001060B0B9306800F0CBF9386800F0C8F93A
:10401000206800F0C5F9D9F8000000F0C1F9DAF81D
:10402000080000F0BDF9DBF8040000F0B9F9C3485E
:10403000A5E0B0480078400100F0AAF9C149086045
:10404000D8B9306800F0ACF9386800F0A9F92068F8
:1040500000F0A6F9D9F8000000F0A2F9DAF808009B
:1040600000F09EF9DBF8040000F09AF9B34800680C
:1040700000F096F9B249086882E09E480078000195
:1040800000F086F9B0490860F0B9306800F088F9AE
:10409000386800F085F9206800F082F9D9F800004E
:1040A00000F07EF9DAF8080000F07AF9DBF8040095
:1040B00000F076F9A148006800F072F9A04908689C
:1040C00000F06EF99F485AE08A480078000100F03D
:1040D0005FF99E49086018BB306800F061F93868E4
:1040E00000F05EF9206800F05BF9D9F8000000F0FC
:1040F00057F9DAF8080000F053F9DBF8040000F093
:104100004FF98E48006800F04BF98D49086800F0BF
:1041100047F98C48006800F043F98B4908682FE0A4
:10412000744800783021484300F032F9884A106022
:1041300070BB306800F034F9386800F031F920685D
:1041400000F02EF9D9F8000000F02AF9DAF808009A
:1041500000F026F9DBF8040000F022F97748006847
:1041600000F01EF97649086800F01AF975480068F1
:1041700000F016F97449086800F012F973480068F5
:1041800000F00EF9002000F0EDF84FF4804192E0CD
:104190003168012008713068057331684D733068EB
:1041A00085733168CD7330680574002031684D74B3
:1041B0003268D072A0223168487103213068C28011
:1041C00001720720316848720020326890722821FD
:1041D000306841820121C176002031684877326819
:1041E00082F85E00012031680877326882F85D004D
:1041F000396808713868057339684D733868857394
:104200003968CD7338680574002039684D743A6890
:10421000D072396848713A6890724FF420703968EA
:104220000022C88008818A7401213A68D17421680B
:104230000D732268557321688D732268D5732168C8
:104240000D740021226855742368D97201212268F7
:1042500011710021236859712168C88008810020EC
:1042600088722168887405202268D07439480168F2
:1042700088472A490A6805461068804727490A681E
:1042800052F8043F0020984718481D4BC168187821
:104290000A88314902430A80284630490A68904713
:1042A0000C212F48FFF7AEF80F48FFF7AFF8FFF7E4
:1042B000B1F84FF4005198F80000BDE8F44F00F059
:1042C00077B800BF6E4F0020044F0020604E0020E2
:1042D000084F0020B63F00502C4E0020E81200503E
:1042E0003C4E00200C4F0020344E00208C52010028
:1042F0006D4F00207B4F00206B4F0020724F00203D
:104300006C4F0020F04E0020F44E00207C4B00202B
:1043100091430000F84E0020A1430000FC4E002015
:10432000CC100020104F002088270020184F0020BC
:104330008C270020182A0020684E0020004F002003
:10434000242A0020282A0020884E00208C4E00209D
:10435000904E0020D4070020544F0020D8070020A2
:10436000F84D002080B5010002BF06490A78012AF5
:1043700004D00549054A097813689847BDE801400B
:1043800000F07CB8F31000209B2A00207010002061
:1043900002490A6852F8343F184700BF90270020AE
:1043A00002490A6852F8383F184700BF902700209A
:1043B0002DE9F04180462A482A4D06785FEA0860D8
:1043C0000F4632D5042000F05AF8040008BF04203C
:1043D00043D04FF6FF702080678000F063F82249D9
:1043E000FF280FBF4E78C96836188E5DFF2EA4F1E6
:1043F0000C0707D1204600F05BF8286850F8081F2A
:10440000884710E0404600F0D0F8FF21B97201461D
:104410002D68D5F80080234600223046C047E0B121
:10442000204600F045F8012017E0B04514D20F48AF
:10443000016888470E49096831F81820174321F8A8
:1044400018700C490A68904729680B4851F8242FC6
:1044500000689047002000E00320BDE8F08100BF25
:10446000997300009027002060100020D4070020DE
:10447000D0260020D8070020C4260020704710B5A1
:10448000040001D1002010BD04F10C0080B2FFF740
:104490007FFF28B1002101600481FF2181720C306F
:1044A00010BD060301480078704700BF601000206F
:1044B00080B508B9052002BD10F8021CFF2901D003
:1044C000042002BD0C38FFF76BFF002002BD020183
:1044D0002DE9F04182B004460E469046FFF7E2FF18
:1044E0004649FF2808BF4F7804D0CA68444B197862
:1044F0000818175C434DFF2F04D1286850F8081F97
:10450000884713E0304600F050F80146FF2008F8D5
:10451000020C20002E680CD156F83C4F4346002276
:104520003846A04770B14046FFF7C2FF0120BDE802
:10453000F681012CF7D13468434600223846A04763
:104540000028F0D10020F2E770B50C0006461546B1
:1045500018D0300602D500F034F89047284A117878
:104560008E4204D32046FFF7A3FF032070BDA4F1C1
:104570000C010868002804BF8A7AFF2A04D020466C
:10458000FFF796FF052070BD8E72012D1E48214653
:1045900002D100F051F801E000F062F84FF4004160
:1045A0003046FFF705FF002070BD10B580F0800495
:1045B000022C02DB00F005F8904710482044807878
:1045C00010BD1048016851F8082F704738B50446EF
:1045D0000E4801688847094905468868844206D123
:1045E00008490B480A68006852F8243F984709496F
:1045F0000A682846BDE832401047000060100020DD
:104600009973000090270020B8260020D4070020CE
:10461000C4260020D807002080B5020606D50A4629
:1046200001460120FFF754FFC0B202BDBDE80840BB
:104630000022FFF789BF000038B5044606480D4642
:1046400001688847216845F80C1C256003490A6801
:10465000BDE83240104700BFD4070020D807002033
:1046600038B504460B480D4601688847002145F8D7
:104670000C1C226812B9256006E00A4652F80C1C90
:104680000029FAD142F80C5C03490A68BDE83240BF
:10469000104700BFD4070020D8070020DFF800F043
:1046A00021C00110DFF800F019AE0110DFF800F0B2
:1046B000F99B0110DFF800F055A401102DE9FC4E24
:1046C000DFF8485A0E469246002440F2013B95F826
:1046D00001C02979EA7895F80090B0EB0B0740F615
:1046E0007B4332D07F1E37D07F1E3CD0BF1E40D0D0
:1046F0007F1E00F086807F1E00F089807F1E00F004
:1047000099807F1E00F0AD807F1E00F0B2807F1E7A
:1047100000F0B7807F1E00F0BD807F1E00F0C280D9
:10472000FF1E00F0C7807F1E00F0CC807F1E00F0CF
:10473000D1807F1E00F0D6807F1E00F0DB807F1FBF
:1047400000F0E380BF1E2FD0F9E0102E12D110220E
:10475000514605F1A4009AE0102E0BD110225146CB
:1047600005F1B40093E0042E04D1DAF80000E86209
:10477000F4E0012E40F0E180012940D09AF80000D9
:10478000E87042B10028F3D1BCF1020F1ED0BCF199
:10479000050FEDD11AE00028EAD0BCF1010F2AD0B4
:1047A000BCF1040F24D126E0012E5BD1012A26D0D2
:1047B0009AF80000287189B100280ED1BCF1030FCE
:1047C0001CBFBCF1070FBCF1050F06D100F044FC83
:1047D0000246DFF83C1900F03CFCBFE00028FCD0AA
:1047E000BCF1010F1CBFBCF1040FBCF1060F02D0DD
:1047F000BCF1050F02D1012000F083FCAEE01224D1
:10480000ACE0022E2ED1BAF80000A883A6E0202E3C
:1048100034DA05F1CC041F212046FDF7E5FF00F056
:10482000A4F86E7100F018FC6979009102460194B9
:10483000012311E0202E21DA05F1EC041F2120468E
:10484000FDF7D2FF00F091F8AE7100F005FCA979F8
:104850000091024601940023DFF8B81800F0CBF96C
:1048600079E0012E69D19AF80000042865DCE8712E
:1048700074E0012E61D19AF8000004285DDA2872F4
:104880006CE0062E59D10622514605F58670FDF7DB
:1048900039FF63E0012E50D19AF8000007284CDC64
:1048A00068725BE0012E48D19AF80000042844DACF
:1048B000A87253E0012E40D19AF8000006283CDA95
:1048C00028744BE000F04DF837D1811F994234D263
:1048D000688243E000F045F82FD1811F99422CD225
:1048E000A8823BE000F03DF827D1B0F5FA7F24DA4A
:1048F000E88233E000F035F81FD1A0F10A0140F65C
:104900007742914219D2288328E0012E04BF9AF8F9
:104910000000012811D105F1800000F05EFC50B9C3
:1049200005F1100100F09CFB040017D105F15C00BB
:1049300000F05AFC12E0162410E018240EE028289B
:104940000BDA022E09D1BAF80030DFF8CC17024694
:10495000102001F041F9044600E00224E0B2BDE875
:10496000F68EBAF80000022E7047324651462046B5
:10497000FDF7C8BE38B50D4600244FF4407302461B
:10498000D11ADFF8880736D0491E36D0491E38D0F4
:10499000491E3AD0491E3BD0491E3DD0491E3FD04A
:1049A000491E3FD0491E41D0491E43D0491E43D025
:1049B000491E43D0491E45D0491E45D0491E45D009
:1049C000891E45D0491E45D0491E45D0491E45D0B7
:1049D000491E45D0491E45D0491E4AD0491E4AD0DD
:1049E000491E4AD0891E4CD0491E17D0491E46D0B8
:1049F000491E48D04AE0807846E0102200F1A40128
:104A000033E0102200F1B4012FE0C06A286044E0D6
:104A1000062200F1C40128E0C07835E0007933E0D7
:104A2000808B37E0427900F1CC011EE0827900F101
:104A3000EC011AE0C07927E0007A25E0062200F5B3
:104A4000867112E0407A1FE0807A1DE0C08B21E081
:104A5000007C1FE0408A1DE0808A1BE0C08A19E0CC
:104A6000008B17E0062200F58A712846FDF74AFE02
:104A700013E0008C0EE0408C0CE0808C0AE0C07AE1
:104A800002E0407800E0007B287006E0282A03DA84
:104A900000F0DEFA288000E00224204632BD1FB577
:104AA000DFF868466178C1B900B12063217800F071
:104AB000D4FA04F1B4010291024604F12C030393E9
:104AC00004F1A4000021019000911020A378DFF8E8
:104AD0004C1601F081F8002000E0112004B010BD58
:104AE00010B5DFF828466078062818BF072882B07E
:104AF0000CD1217800F0B1FA132200920246E38B28
:104B0000DFF81C1600F077F8C0B216BD122016BDF3
:104B100000B58FB008233C2200216846FFF7BEFD98
:104B2000DFF8000600F1500107914FF4DC72032119
:104B30000892069100236A460FF2C501FFF7B2FD05
:104B40000FB000BD7CB5DFF8C44504F12801204654
:104B500000F0D2FD0020607000214FF6FF70E0836E
:104B600000910120019000230FF2E5550022294613
:104B700004F1380000F0FAFA022000F034F804F1F1
:104B80005C0000F0F3FA042000F02DF804F180003E
:104B900000F0ECFA0420A070002104F1A40000222F
:104BA0000023002580E82E0004F1B405002685E8E6
:104BB0004E00E162E1712172A272072161720090E0
:104BC0001023DFF86465022200F014F8009510232A
:104BD000032200F00FF804F12C00009004230422BB
:104BE00000F008F873BD002101900091002300221D
:104BF000294670473146102000F0EEBF000000004B
:104C00002DE9F04387B0FFF79DFFDFF80075DFF86F
:104C10001C55DFF81C65DFF81C8507F18009B86AB0
:104C2000DFF814254FF0FF330021FFF73FFD0400AC
:104C3000F5D00020029002AA01A90DF1060000F0B3
:104C400092FD00283DD1BDF80600102802BF9DF856
:104C500004103878814230D1029801884FF6FF72F3
:104C600091420BD14088410427D507F12C010091D6
:104C7000042304224146FFF7BEFF1EE00178A2296B
:104C800004D0D02908BF00F068F816E04179132954
:104C900013D10089012804BF797B022905D1484638
:104CA00000F0A2FAFFF71CFF07E00522314600F0F2
:104CB000D0F981B2484600F080FA029808B100F0BD
:104CC0003DFDE00730D53879F97801432CD018B193
:104CD00003208DF80C000CE0F9798DF80C100622F9
:104CE000387A8DF80D0007F586710DF10E00FDF78D
:104CF00009FD787A8DF81400B87A8DF815005020E7
:104D0000397800F04FFF024603AB2946102000F02F
:104D100063FF00281FBF08207870386B002803D07D
:104D2000016809B108208847A00704D507F11001E0
:104D3000002000F095F9600706D5787B012804D0A3
:104D4000022808BFFFF7CCFE69E700903B8BFA8A88
:104D5000B98A788A00F0BCF961E72DE9F04105468F
:104D600084B0DFF8A843A97862782379DFF8A463D8
:104D7000080004F58A7704F1800815D002294AD08A
:104D8000032918BF042971D0052900F09380062952
:104D900000F0C480072900F0E7800F2900F0FF80B1
:104DA000112900F0038134E06878010026D104F174
:104DB000A40100911023DFF87C7302223946FFF72B
:104DC0001AFF04F1B4010091102303223946FFF7C2
:104DD00012FF0622E91C04F1C400FDF793FC012038
:104DE00060705020217800F0DDFE024604F1CC0016
:104DF0000190012360790090FFF7FCFEC0B208B17A
:104E000008206070206B00281FBF016800296078AF
:104E10008847BDE8FF81697811BBE87868B12178DF
:104E200000F01BF904F1EC0101910246A179009117
:104E30000023FFF7DFFE687012E0022A18BF072A7E
:104E40000ED0062A02D1012B0AD101E0032A07D095
:104E500004F1380000F0C1F910B9012000F051F957
:104E600068780028D5D008216170CBE7687800BB4E
:104E7000E078032908D1062A08BF0720C1D00028FE
:104E80000CBF03200220BCE7A18B31B103430AD041
:104E900004F1380000F091F905E0012807BF002077
:104EA000E070002020716078072814BF04200620DD
:104EB000A7E7A5E7687858BB0622291D3846FDF705
:104EC00021FC6889E08306206070E8892084288AB4
:104ED0006084688AA084E878E072207C012818BF8A
:104EE00002280AD11F2200F0B3F880B24FF47A7181
:104EF000414304F15C0000F060F9042001902B1D97
:104F000068898E4900901020EA7800F065FE79E704
:104F10003128CED10020E070042072E7AA888849A9
:104F200000F097F806213846FDF75EFC002020844B
:104F30006084A084A879207304F15C0000F054F927
:104F4000404600F051F94FF6FF70E083207908B138
:104F5000032189E7A87908280CBF05200420607088
:104F6000012000F0CEF84DE7404600F03DF96878AA
:104F7000002813D1E9882184288960846889A08465
:104F800004F15C0000F029F9002807D1636B002BC5
:104F900004D0A28C618C208C1B68984739E7AA88C2
:104FA00068490523102000F017FE32E7217CA8880D
:104FB000ADF80000052903D100208DF80A0041E07A
:104FC00001218DF80A1004F15C0000F00DF9207C3D
:104FD000012818BF04281AD1608AE988814228BFB5
:104FE0000846ADF80200A18A2889884238BF0846E1
:104FF000ADF80400E18A6889884238BF0846ADF8F8
:105000000600218BA88988421AD2084618E0032896
:1050100018BF02280AD1608AADF80200A08AADF854
:105020000400E08AADF80600208B09E0E888ADF8BE
:1050300002002889ADF804006889ADF80600A88947
:10504000ADF8080040496A46102000F0C5FDE0E6D2
:105050003749102000F0C0BD4946502000F0A2BDE5
:10506000FEB50F46294D79880446288C884224BF16
:10507000B988814207D3688CF988884202BFA88C1E
:105080003989884221D00522FFF7E2FFE98BADF88C
:105090000010064678882D49ADF802006A46B888A7
:1050A000ADF80400F888ADF806003889ADF80800BE
:1050B000102000F091FD0746C0B238B96C73B1B250
:1050C00005F1800000F079F800E01827F8B2FEBD85
:1050D0003EB50E4D6C78062C01D014203EBDADF8C7
:1050E0000200ADF80410ADF80620ADF8083005F167
:1050F0005C00069C00F078F869462046FFF7B0FF98
:105100003EBD01460148806AFFF7D4BA540800202A
:105110009945011009450110BD8401100554010095
:10512000E5140110F8100020059C000059440110FE
:10513000F5840110459C000007000080E91D010076
:1051400011F50000C1170110051601107D150110A1
:10515000D7E70000DFF800F0A1B60110DFF800F09B
:1051600035BD0110DFF800F019BD01102DE9F04345
:1051700089B08046894617461D46109C119E08231B
:10518000242200216846FAF7A9FF474906964FF402
:105190007A700A68B0FBF2F0454305954743ADF8D5
:1051A00010406B463A4649464046FAF7A7FF40464C
:1051B00009B0BDE8F083FAF79DBF38B504460D4647
:1051C000FDF77FFB10B12046FAF78CFF00F00EF8D8
:1051D0002046BDE83240FAF78DBF80B5FDF771FB80
:1051E00000B10120C0B202BDFAF77CBF2E4A1068A0
:1051F0004FF47A71B1FBF0F0454329462046FAF7A7
:1052000075BF10B504460021FFF7A4FF204610BD6E
:1052100070B505460C4616460C2000F026FB010032
:105220000BD08E602846FFF799FF24B14FF08041E4
:105230002046FFF73FFA012070BD304600F016FB14
:10524000002070BD10B50446FFF78CFFA04204D0CB
:10525000846800F00BFB204610BD002010BD70B527
:1052600086B0044668460FF248011422FDF75AFA48
:105270000E4830250570831C78254570A21D062137
:1052800012F8015D2D09491E1DF8056003F8016B38
:10529000167806F00F061DF8065003F8015BEFD1F3
:1052A00006B070BD00000000685F0100A822002069
:1052B000303132333435363738394142434445464C
:1052C00000000000DFF800F02DB40110DFF800F05E
:1052D000CDAC0110DFF800F02DC00110DFF800F0B8
:1052E000FDB1011020B108233C220021FFF7D6B9FF
:1052F000704780B5FDF71CFBADF80000FAF79EFE85
:10530000ADF80200009802BD01B5BDF80200FAF741
:1053100099FEBDF80000BDE80240FDF70DBB38B5B1
:10532000DFF89049207801282DD0DFF88C29DFF8AC
:105330008C0992089200801AA0610121217062619B
:10534000104602E0002340F8043BA3699D18A842E0
:10535000F8D39B0802EB8301002041F8040CE820FD
:105360001060A06980088000EC38C2F8E80002F103
:10537000E800A060002000F007F8E0606069A0602D
:10538000A069001F206131BDF8B500250026071D6A
:1053900017F003001CBF391D0F1AFFF7AAFFDFF833
:1053A000142901465160112F34BF9468D4682068D5
:1053B000002803D580F0004000261AE0330014D006
:1053C0002B68D4F800C06344BB422B6011D32C4639
:1053D0001846ECB1C01B042811D3E05147F000403F
:1053E00020601069C71B176111E0B842F1D2012695
:1053F0002546044420680028DAD1002408E0136917
:1054000020681B1A1361206840F000402060241DB2
:1054100000F0C4BB10B50446FFF76BFFDFF894182B
:10542000486054F8042C22F0004244F8042C0B6924
:10543000D2180A61221F8B689A4238BF8A60BDE881
:10544000104061E72DE9F04182B0FFF752FFDFF82D
:105450006418CA68486000260027002400250AE076
:105460000C460127164605E03B00F9D03368CB18FF
:1054700033600C190A441168A846A54238BFA046FB
:10548000002905D0F0D581F0004100274546F1E71D
:10549000FFF73AFF4046BDE8F68110B50446DFF855
:1054A00014088169216000696060FFF7CBFF09285B
:1054B0002CBF08380020A06010BD80B5FFF72FFF7B
:1054C0004BF6BE2002BD08465EE70846A2E702B5DD
:1054D0006846FFF7E2FF01BD0120704738B504467A
:1054E000FFF707FF00220C23DFF8D4175343CD1832
:1054F000A96C21B18C4206D0521C032AF3D3FFF7CA
:1055000003FF002032BDFFF7FFFE05F1480032BD6A
:1055100070B582B00546FFF7ECFE044600210C2270
:10552000DFF89C074A438618B06C48B1854210D01A
:10553000491C0329F3D32046FFF7E6FE002076BD81
:105540003065B5640021FFF7BDFEF06408B900F0D6
:10555000D3FB2046FFF7D8FE06F1480076BD38B5EC
:105560000446FFF7C6FE0025DFF854270C216943E7
:10557000515A21B18C4206D06D1C062DF6D3FFF78F
:10558000C3FEFF2032BD05E310B504462088FFF7B7
:10559000E6FFFF2802D14FF0FF3010BD0C21DFF8ED
:1055A000202748431044816811B96FF0010010BDF5
:1055B0002046BDE81040084702460FF22870104709
:1055C00010B500200C21DFF8F826002401FB00F3C1
:1055D0001344401C03289C641C65F7D3002000235F
:1055E00001FB00F4401C13530628F9D3BDE810401A
:1055F00095E670B590B0FDF79BF905466846FFF754
:1056000071FE05204FF47A71069008910022DFF8B0
:10561000B406DFF8B416049005916946DFF8AC06CD
:10562000FFF754FE040006D0FFF763FE064620464F
:10563000FFF76EFF08B900F05FFB3046FFF764FE2E
:105640002846FDF779F910B070BD38B504460D460F
:10565000FFF74FFE002145F80C1C226812B92560A7
:1056600006E00A4652F80C1C0029FAD142F80C5CFC
:10567000BDE8324048E680B5FFF72CFEFFF72EFF6D
:1056800010B96FF0040002BD816809B9022002BDA3
:105690004068B0E0062881B00ADA0C225043DFF8F7
:1056A0002026105A00281CBF4FF6F872904202D1F3
:1056B0004FF0FF3001E00880002001B0704730B5A6
:1056C000DFF80C562A680C464FF47A71A1FB0001F2
:1056D000002300F015FB002399424FF0004201D84F
:1056E000904202D36FF0020030BD2060002030BD38
:1056F000014688684968084770B505460E46FFF7B9
:10570000E9FDFFF705FF040009D0FFF7F2FD0146B0
:10571000002200F0A3F820B1521C062AF9D300F0B1
:10572000EBFA4FF6F87018805C60002098602A70E1
:105730006068306000F00DFA002070BD0C3869E63A
:1057400070B5044615461E460846FFF708FFFF28B9
:1057500002D14FF0FF3070BD014633462A46204645
:10576000BDE8704084E070B582B00546164600F092
:10577000A1F8040010D128886946C0B2FFF78AFF5B
:1057800028B13068FFF7DAFF6FF0050076BDBDF88D
:1057900000002880FFF76FFF204676BD38B505462C
:1057A000FFF798FDFFF79AFE044600F021FB002862
:1057B00018BF012800D014B96FF0040032BD65B9DC
:1057C00000200090009B60684FF000420021FEF72F
:1057D0006DFF401E8041C00F32BD15F1010F08BFA3
:1057E0004FF0FF30EDD069462846FFF768FF0028EC
:1057F000E8D032BD80B54FF00041FEF75BFF0020DE
:1058000002BD2DE9F84305460E4617469846FFF7B8
:1058100061FDFFF77DFE04006FF002091CD0FFF769
:1058200068FD0146002200F019F840B1854211D010
:10583000521C062AF7D300F05FFABDE8F2831D8000
:105840005C609E603A706068C8F8000000F081F902
:105850000020F2E700F07DF94846EEE70C23DFF880
:10586000600453430344188870478DE5D2E514E67D
:105870002DE9F8430E46062EBCBF0446062C1546FD
:1058800098466FF0020906DAFFF733FD00F009FAD7
:1058900019B9FFF739FD48460AE0FFF735FD00F07A
:1058A000F6F9786840684FF00041FEF703FF0020EA
:1058B000BDE8F2832DE9F04106460F469046FFF71A
:1058C00009FDFFF70BFE050008BF6FF004001BD0B9
:1058D000FFF70FFDA968002441B10C46A4F10C01AB
:1058E0000A68AA6000220A60FF228A72FFF70CFD94
:1058F0000CB9022008E0A4F10C0001793170407964
:105900003870C8F800400020BDE8F08182B0012165
:105910008DF800109DF800000028FBD100F0ECF994
:1059200000BFFCF7B3BF10B5DFF8A40302686FF047
:105930000044A4FB020100234FF47A7200F0E0F966
:10594000002399424FF0004201D8904200D32046F4
:1059500010BD70B582B00C4615461E466946FFF76D
:10596000AEFE30B9009833462A46214600F002F8D0
:10597000002076BD2DE9F0431D4689B02C68804695
:105980000E4617462CBB0C20FFF7FEFC04006FF000
:10599000030918D00823242200216846FAF79EFB49
:1059A0000020ADF810000590069400236A46414699
:1059B000DFF82003FFF792FC206030B9FFF7A6FF65
:1059C0002046FFF727FD484617E06660A7602C6079
:1059D0000BE0DFF804633068804705462068FAF77B
:1059E00081FBA76028467168884720684146FAF71E
:1059F0007DFB2068FAF77EFB002009B0BDE8F0834C
:105A000000281CBF0068FAF76DBB704700B583B073
:105A10008DF80400684600F01BFA9DF805000EBDE5
:105A200000B583B00190684600F048FA0EBD00B59D
:105A300083B00190684600F04BFA0EBD2DE9F043AB
:105A400085B00446884616461F46FFF743FCFFF71D
:105A500045FD05460020029000F0CAF9002818BF55
:105A6000012800D015B96FF004006FE044B90020A0
:105A70000190FCF70BFF814601980124814425E049
:105A800014F1010F08BF4FF0FF30F1D001A92046FB
:105A9000FFF715FE0028ECD058E0039902A8FFF7A5
:105AA000D4FD68684FF00051FEF704FE019901240F
:105AB00011F1010F0AD0080008D0FCF7E7FEB9EB9E
:105AC00000002ED0019981422BD30190019B686880
:105AD0004FF000520021FEF7E9FD10B303AA69461A
:105AE0000DF10100FFF7E6FE0400DFD19DF8010093
:105AF0000DF10201FFF7CEFD0028CED1039A9DF8EB
:105B00000010BDF80200C0470028C6D016B1BDF88D
:105B10000200308017B19DF8000038700C9803998E
:105B20000160FFF7A8FD029EFFF7E3FB014656B1B7
:105B3000324600E0024652F80C0C0028FAD1A86860
:105B400042F80C0CAE6000F004F8204605B0BDE849
:105B5000F0830846FFF7D8BB38B5FFF7BBFB044618
:105B600000F046F9002818BF012811D0FFF7C1FB4B
:105B70000025534A0C236B43D15A39B1D1184B68D5
:105B80001968A14206D06D1C062DF3D3FFF7BCFBAC
:105B9000FF2032BDFFF7B8FBE8B232BDFFF7D9FFF7
:105BA0002046F2BD00B583B0ADF800008DF80610B8
:105BB00000204A490A68ADF802006846904710B9CB
:105BC0009DF807000EBDFF200EBD1078422801D1C0
:105BD00001207047002070470CB470B504460E4693
:105BE00088B000F005F90CAD002814BF0128FFF7BC
:105BF0008DFE1420ADF810000021FF2002918DF8D9
:105C0000120006960595FFF7A7FF05AB0322214674
:105C1000FFF796FD002001A90190009100230022CA
:105C20002F4941F28830FFF709FF012805D020B93C
:105C3000019820B1FFF782FD01E0FFF767FE0598AC
:105C4000006808B070BC5DF80CFB2DE9F8430E4607
:105C5000062EBCBF0446062C154698466FF0020976
:105C600006DAFFF746FB00F01CF819B9FFF74CFB0A
:105C700048460AE0FFF748FB00F009F878684068FA
:105C80004FF00051FEF716FD0020BDE8F283A8F1A9
:105C90000800414604704670857078680830FFF748
:105CA000D4BC0C21064A01FB06F7D7197968704766
:105CB00000000000201D0020AC2A0020FF3F002033
:105CC000B41C0020F554010044080020B955000020
:105CD000685F0100F1560000D4070020DC070020B7
:105CE000CB5B000089550000F3520000095300000F
:105CF000DFF800F01D9A01100120FFF7F9BFFEE761
:105D00001B4213D1094236D12AB18446B0FBF2F0CE
:105D100002FB10C2704700F0EBB8FCD30022002356
:105D200070470B000200002100207047904271EB89
:105D3000030CF6D370B5B1FA81F4B3FA83F52C1BDA
:105D4000A340C4F1200532FA05F63343A2405FF0C8
:105D50000046E64002E05B085FEA3202841A71EB1B
:105D6000030524BF204629467641F4D302000B00E8
:105D70003000002170BD012ACFD970B5140C20D09D
:105D8000B1FA81F4B2FA82F5C4F120046419B4F1D5
:105D90002006D6D3B2405FF00044F440002502E074
:105DA00052085FEA3303C61A71EB020E24BF304675
:105DB000714664416D41F3D302000B0020002900BD
:105DC00070BD0C46B1FBF2F102FB11452D0445EA12
:105DD0001045B5FBF2F402FB145580B240EA0545CC
:105DE000B5FBF2F002FB105240EA044070BD704770
:105DF0000148007D704700BFA401002010B5044693
:105E000001E0FAF7FFFAB4FA84F0202806D000F097
:105E100017F8F6DB401FFAF70AFBF4E710BD10B5E0
:105E2000044601E0FAF789FAB4FA84F0202806D093
